A11111-22222-33333-4444Muffler       A-101231BP45610001CM 001CHRTown&Ctry 2015xxxxxxxxxxxxxx23456xxxxxSSubcon Company 001332010010111234 West Main Order Dept.                   Any Town       AL359949999921234 West Main Sched Dept.    Attn: Mary     Any Town       AL359949999931234 West Main Remit Dept.    Attn: Bob      Any Town       AL3599499999000001TUR00000010000022952020072520200910000002TUR00000020000015482020072620200903000003TUR00000010001023452020072820201012
B11111-33333-33333-4444Brake Fluid   A-101231BP45710001CM 003CHRTown&Ctry 2017              2245610001S101 Subcontract0042320150525114 PennsylvaniaMain Office    Attn: Jojo Za  Pennsylvania   DC2050099999214 PennsylvaniaMain Office    Attn: Jojo Za  Pennsylvania   DC2050099999314 PennsylvaniaMain Office    Attn: Pomela   Pennsylvania   DC2050099999PO3051TUR00001000000059652020080120201125PO3052TUR00007000000059652020081520201105PO6000TUR00010000000059652020080120201125
B11111-33333-33333-5555Brake Pads    A-101231BP45820002CM 001GM GMC       2017xxxxxxxxxxxxxx36981xxxxxDMy Distributor 0022120150507194 Grove Ave.  Main Office    Attn: Chris    My  Town       AL3599499999294 Grove Ave.  Main Office    Attn: Ted      My  Town       AL3599499999394 Grove Ave.  Main Office    Attn: Susan    My  Town       AL3599499999001025TUR00001000000022952020061320200710001036TUR00002250000015482020072620200803001068TUR00010000000001452020082820201012
B11111-44444-33333-6666Brake Disc    A-101231BP45930003CM 002VW TourE     2008xxxxxxxxxxxxxx78912xxxxxMPomela's Mfg.  003112018060717986 Maple ST.                Attn: Mike     My  City       AL359949999927986 Maple ST.                Attn: Mary     My  City       AL359949999937986 Maple ST.                Attn: Matt     My  City       AL3599499999009887URB00000100000322952020051220200623010145URB00002000000126232020060520200715020067URB00010000000001992020070520200901
11111-33333-33333-55555Brake Pads    A-101231BP458xxxxxCM 001GM GMC  xxxxx2017xxxxxxxxxxxxxx36981xxxxxDDistributor    0022120150507194 Grove Ave.  Main Office    Attn: Chris    My  Town       AL3599499999294 Grove Ave.  Main Office    Attn: Ted      My  Town       AL3599499999394 Grove Ave.  Main Office    Attn: Susan    My  Town       AL3599499999001025TUR00001000000022952020061320200710001036TUR00002250000015482020072620200803001068TUR00010000000001452020082820201012
11111-22222-33333-44444Muffler       A-101231BP456xxxxxCM 003CHRTownCxxxxx2015xxxxxxxxxxxxxx23456xxxxxSSub Contractor 003332010010111234 West Main Order Dept.                   Any Town       AL359949999921234 West Main Sched Dept.    Attn: Mary     Any Town       AL359949999931234 West Main Remit Dept.    Attn: Bob      Any Town       AL3599499999000001TUR00000010000022952020072520200910000002TUR00000020000015482020072620200903000003TUR00000010001023452020072820201012
11111-44444-33333-66666Brake Disc    A-101231BP459xxxxxCM 002VW TourExxxxx2008xxxxxxxxxxxxxx78912xxxxxMManufacturer   003112018060717986 Maple ST.                Attn: Mike     My  City       AL359949999927986 Maple ST.                Attn: Mary     My  City       AL359949999937986 Maple ST.                Attn: Matt     My  City       AL3599499999009887URB00000100000322952020051220200623010145URB00002000000126232020060520200715020067URB00010000000001992020070520200901
11111-22222-33333-44444Tailpipe SS   A-101231BP456xxxxxCM 003CHRTownCxxxxx2015xxxxxxxxxxxxxx23456xxxxxSSub Contractor 003332010010111234 East Main Order Dept.                   Any Town       AL359949999921234 West Main Sched Dept.    Attn: Mary     Any Town       AL359949999931234 West Main Remit Dept.    Attn: Bob      Any Town       AL3599499999000001TUR00000010000022952020072520200910000002TUR00000020000015482020072620200903000003TUR00000010001023452020892820201012
ABDCD-LKSWO-A5660-DEAVC              A-101231BP459xxxxxCM 002VW TourExxxxx2008xxxxxxxxxxxxxx78912xxxxxMManufacturer   003112018063717986 Apple ST.                Attn: Mike     My  City       AL359949999927986 Maple ST.                Attn: Mary     My  City       AL359949999937986 Maple ST.                Attn: Matt     My  City       AL3599499999009887URB00000100000322952020051220200623010145   00002000000126232020060520201715020067URB00010000000001992020070520200901
11111-44444-33333-77777              A-101231BP459xxxxxCM 002VW TourExxxxx2008xxxxxxxxxxxxxx78912xxxxxMManufacturer   001112018060717986 Maple ST.                Attn: Mike     My  City       AL359949999927986 Maple ST.                Attn: Mary     My  City       AL359949999937986 Maple ST.                Attn: Matt     My  City       AL3599499999009887URB00000100000322952020051220200623010145URB00002000000126232020060520200715020067URB00010000000001992020070520200901
22222-11111-22222-33333Mirror/Bad LeaA-111231BP459xxxxxCM ONEVW Beetlxxxxx2008xxxxxxxxxxxxxx78912xxxxxMManufacturer   003112018060717986 Maple ST.                Attn: Mike     My  City       AL359949999927986 Maple ST.                Attn: Mary     My  City       AL359949999937986 Maple ST.                Attn: Matt     My  City       AL3599499999009887URB00000100000322952020051220200623010145URB00002000000126232020060520200715020067URB00010000000001992020070520200901
22222-11111-22222-33333Rear Seat     A-111231BP459xxxxxCM 000MG Beetlxxxxx2008xxxxxxxxxxxxxx78912xxxxxMManufacturer   003112018060717986 Maple ST.                Attn: Mike     My  City       AL359949999927986 Maple ST.                Attn: Mary     My  City       AL359949999937986 Maple ST.                Attn: Matt     My  City       AL3599499999009887URB00000100000322952020051220200623010145URB00002000000126232020060520200715020067URB00010000000001992020070520200901
22222-11111-22222-33334Blank Vehicle A-111231BP459xxxxxCM 000   Beetlxxxxx2008xxxxxxxxxxxxxx          MManufacturer   003112018060717986 Maple ST.                Attn: Mike     My  City       AL359949999927986 Maple ST.                Attn: Mary     My  City       AL359949999937986 Maple ST.                Attn: Matt     My  City       AL3599499999009887URB00000100000322952020051220200623010145URB00002000000126232020060520200715020067URB00010000000001992020070520200901
22222-11111-22222-33334Left Seat F   A-111231BP459xxxxxCM 000GM Beetlxxxxx2008xxxxxxxxxxxxxx78912xxxxx Manufacturer   003112018060717986 Maple ST.                Attn: Mike     My  City       AL359949999927986 Maple ST.                Attn: Mary     My  City       AL359949999937986 Maple ST.                Attn: Matt     My  City       AL3599499999009887URB00000100000322952020051220200623010145URB00002000000126232020060520200715020067URB00010000000001992020070520200901
22222-11111-22222-33334Blank Manufac A-111231BP459xxxxxCM 000GM Beetlxxxxx2008xxxxxxxxxxxxxx78912xxxxxM               003112018060717986 Maple ST.                Attn: Mike     My  City       AL359949999927986 Maple ST.                Attn: Mary     My  City       AL359949999937986 Maple ST.                Attn: Matt     My  City       AL3599499999009887URB00000100000322952020051220200623010145URB00002000000126232020060520200715020067URB00010000000001992020070520200901
11112-44444-33333-77777No manufacter A-101231BP459xxxxxCM 002VW TourExxxxx2008xxxxxxxxxxxxxx78912xxxxxMManufacturer   000112018060717986 Maple ST.                Attn: Mike     My  City       AL359949999927986 Maple ST.                Attn: Mary     My  City       AL359949999937986 Maple ST.                Attn: Matt     My  City       AL3599499999009887URB00000100000322952020051220200623010145URB00002000000126232020060520200715020067URB00010000000001992020070520200901
11113-44444-33333-77777Bad Rating    A-101231BP459xxxxxCM 002VW TourExxxxx2008xxxxxxxxxxxxxx78912xxxxxMManufacturer   003812018060717986 Maple ST.                Attn: Mike     My  City       AL359949999927986 Maple ST.                Attn: Mary     My  City       AL359949999937986 Maple ST.                Attn: Matt     My  City       AL3599499999009887URB00000100000322952020051220200623010145URB00002000000126232020060520200715020067URB00010000000001992020070520200901
11114-44444-33333-77777No State/StatuA-101231BP459xxxxxCM 002VW TourExxxxx2008xxxxxxxxxxxxxx78912xxxxxMManufacturer   003172018060717986 Maple ST.                Attn: Mike     My  City       AL359949999927986 Maple ST.                Attn: Mary     My  City       AL359949999937986 Maple ST.                Attn: Matt     My  City       AL3599499999009887URB00000100000322952020051220200623010145URB00002000000126232020060520200715020067URB00010000000001992020070520200901
11115-44444-33333-777770 ZIP/Bad DateA-101231BP459xxxxxCM 002VW TourExxxxx2008xxxxxxxxxxxxxx78912xxxxxMManufacturer   003112054134517986 Maple ST.                Attn: Mike     My  City       AL359949999927986 Maple ST.                Attn: Mary     My  City       AL359949999937986 Maple ST.                Attn: Matt     My  City       AL3599499999009887URB00000100000322952020051220200623010145URB00002000000126232020060520200715020067URB00010000000001992020070520200901
11116-44444-33333-77777              A-101231BP459xxxxxCM 002VW TourExxxxx2008xxxxxxxxxxxxxx78912xxxxxMManufacturer   003112018060717986 Maple ST.                Attn: Mike     My  City       AL359949999927986 Maple ST.                Attn: Mary     My  City       AL359949999937986 Maple ST.                Attn: Matt     My  City       AL3599499999009887URB00000100000322952020051220200623010145URB00002000000126232020060520200715020067URB00010000000001992020070520200901
11117-44444-33333-77777Blank addr    A-101231BP459xxxxxCM 002VW TourExxxxx2008xxxxxxxxxxxxxx78912xxxxxMManufacturer   00311201806071                              Attn: Mike     My  City       AL359949999927986 Maple ST.                Attn: Mary     My  City       AL359949999937986 Maple ST.                Attn: Matt     My  City       AL3599499999009887URB00000100000322952020051220200623010145URB00000000000126232020060520200715020067URB00010000000001992020290520200901
11118-44444-33333-77777No City       A-101231BP459xxxxxCM 002VW TourExxxxx2008xxxxxxxxxxxxxx78912xxxxxMManufacturer   003112018060717986 Maple ST.                Attn: Mike     My  City       AL359949999927986 Maple ST.                Attn: Mary     My  City       AL359949999937986 Maple ST.                Attn: Matt                    AL3599499999009887URB00000100000322952020051220200623010145URB00002000000126232020060520200715020067URB00010000000001992020070520200901
11119-44444-33333-77777              A-101231BP459xxxxxCM 002VW TourExxxxx2008xxxxxxxxxxxxxx78912xxxxxMManufacturer   003112018060717986 Maple ST.                Attn: Mike     My  City       AL359949999927986 Maple ST.                Attn: Mary     My  City       AL359949999937986 Maple ST.                Attn: Matt     My  City       AL3599499999009887URB00000100000322952020051220200623010145URB00002000000126232020060520200715020067URB00010000000001992020070520200901
11120-44444-33333-77777No State      A-101231BP459xxxxxCM 002VW TourExxxxx2008xxxxxxxxxxxxxx78912xxxxxMManufacturer   003112018060717986 Maple ST.                Attn: Mike     My  City       AL359949999927986 Maple ST.                Attn: Mary     My  City       AL359949999937986 Maple ST.                Attn: Matt     My  City         3599499999009887URB00000100000322952020051220200623010145URB00002000000126232020060520200715020067URB00010000000001992020070520200901
11121-44444-33333-77777Blank ZIP     A-101231BP459xxxxxCM 002VW TourExxxxx2008xxxxxxxxxxxxxx78912xxxxxMManufacturer   003112018060717986 Maple ST.                Attn: Mike     My  City       AL359949999927986 Maple ST.                Attn: Mary     My  City       AL          37986 Maple ST.                Attn: Matt     My  City       AL0000000000009887URB00000100000322952020051220200623010145URB00002000000126232020060520200715020067URB00010000000001992020070520200901
11122-44444-33333-77777Part one      A-101231BP459xxxxxCM 002VW TourExxxxx2008xxxxxxxxxxxxxx78912xxxxxMManufacturer   003112018060717986 Maple ST.                Attn: Mike     My  City       AL359949999927986 Maple ST.                Attn: Mary     My  City       AL359949999937986 Maple ST.                Attn: Matt     My  City       AL3599499999009887URB00000100000322952020051220200623010145URB00002000000126232020060520200715020067URB00010000000001992020070520200901
11123-44444-33333-77777Part two      A-101231BP459xxxxxCM 002VW TourExxxxx2008xxxxxxxxxxxxxx78912xxxxxMManufacturer   003112018060717986 Maple ST.                Attn: Mike     My  City       AL359949999927986 Maple ST.                Attn: Mary     My  City       AL359949999937986 Maple ST.                Attn: Matt     My  City       AL3599499999009887URB00000100000322952020051220200623010145URB00002000000126232020060520200715020067URB00010000000001992020070520202901
